:100000000C9472000C9486000C9486000C9486006C
:100010000C9486000C9486000C9486000C94860048
:100020000C9486000C9486000C9486000C94860038
:100030000C9486000C9486000C9486000C94860028
:100040000C9486000C9486000C9486000C94860018
:100050000C9486000C9486000C9486000C94A800E6
:100060000C9486000C9486000C9486000C948600F8
:100070000C9486000C9486000C9486000C948600E8
:100080000C9486000C9486000C9486000C948600D8
:100090000C9486000C9486000C9486000C948600C8
:1000A0000C9486000C9486000C9486000C948600B8
:1000B0000C9486000C9486000C9486000C948600A8
:1000C0000C9486000C9486000C9486000C94860098
:1000D0000C9486000C9486000C9486000C94860088
:1000E0000C94860011241FBECFEFD1E2DEBFCDBF3E
:1000F00000E00CBF22E0A0E0B2E001C01D92A230FF
:10010000B207E1F70E94E5000C943D010C94000059
:10011000EAE0F1E080818F7D8083EBE08081806286
:100120008083089580910901002485FF0394802D28
:10013000089585B5836085BD85B58B7F85BDEEE669
:10014000F0E080818160808386E086BD78940895A8
:100150008F938FB78F939F938091000290910102AC
:10016000892B49F0809100029091010201979093B0
:1001700001028093000286E086BD9F918F918FBF20
:100180008F911895EAE0F1E08081806C808308957A
:10019000EBE0F1E080818F778083808180648083D1
:1001A0000895EBE0F1E080818F7B8083808180681F
:1001B00080830895EBE0F1E0908121E001C0220FFF
:1001C0008A95EAF79227908308950E94C2000E94C0
:1001D00088000E94990000E911E0F12E84EFE82EDA
:1001E0000E94C80080ED97E0909301028093000286
:1001F0008091000290910102892BA1F5F0920102F9
:10020000E0920002C4E08091000290910102892BEB
:10021000D1F786E00E94DA00C11129C00E94D10006
:1002200088EE93E090930102809300028091000297
:1002300090910102892BD1F71093010200930002E3
:10024000C4E08091000290910102892BD1F787E0F0
:100250000E94DA00C11521F2C150109301020093EF
:100260000002EFCF0E9492008111C8CFC1CFC150D0
:0E027000F0920102E0920002C6CFF894FFCF98
:00000001FF
